:20000000E03E00204568000001CA011001CA011001CA011001CA011001CA011001CA0110CD
:1C00200001CA011001CA011001CA011001CA011001CA011001CA01103FCA011082
:20003C00F0B52B4E06F12C0138C9ADF11C0D02AA38C20AC94FF0805782E80A0044688568FE
:20005C00D7F8D001C16828688847296821488A6B10408863286840F2F2711834416494F890
:20007C00240094F82510C0100DEB80008068084329684863684600F031F82179D7F8D001C7
:20009C0006EB8101476822688B686179286856F821101943A37906EB8306B3690B430199C6
:2000BC00B8470D490A1F106840F010001060086840F001000860A87DFF2806D0E87DFF28C7
:2000DC0003D0086840F44040086007B0F0BDC046389500000DF8FFFF30100040DFF800F024
:0400FC00F9BF011037
:200100003C000000000000000000000034010000000000000000000001000000000000006D
:1C01200000000000000000000000000001000000000000000800000000000000BA
:20013C00340000000000000000000000680100000000000000000000010000000000000005
:14015C00010000000000000000000000080000000000000086
:2001700030000000000000000000000098010000040000000000000001000000FFFFFFFFA5
:10019000FF00000001000000080000000000000057
:2001A0002C0000000000000000000000C4010000040000000000000001000000FFFFFFFF4D
:0C01C000FFFFFFFF08000000000000002F
:2001CC0034050000E401000099A1011095A70110A5C2011009B2011045B80110000000000B
:0801EC00000000002F000000DC
:2001F400280000000000000000000000140200000000000000000000FFFFFFFF00000000B1
:080214000800000000000000DA
:20021C00300500003002000069C201106DC101101FC2011095BA011000000000000000008E
:04023C002D00000091
:20024000300500005402000075C20110A9B601109DBF011049B601100000000000000000DE
:040260002E0000006C
:200264002400000000000000000000008002000000000000000000000000000008000000CC
:040284000000000076
:20028800240000000000000000000000A40200000000000000000000000000000800000084
:0402A8000000000052
:2002AC00240000000000000000000000C8020000000000000100000000000000080000003B
:0402CC00000000002E
:2002D000000000008C1000200400000000000000000000002000000070010000300000008D
:2002F0001C020000B81000200400000000000000000000000C00000030040000180000008C
:2003100040020000C41000200400000000000000000000002400000048040000180000000B
:2003300000000000CC10002004000000000000000000000010000000A00100002C000000D0
:20035000CC010000D41000200400000000000000000000002000000064020000240000000E
:20037000FFFFFFFFF410002004000000000000000000000028000000880200002400000073
:20039000FFFFFFFF24110020040000000000000000000000580000003C010000340000002F
:2003B000FFFFFFFF2C11002004000000000000000000000010000000600400001800000044
:2003D000FFFFFFFF341100200400000000000000000000001C000000AC02000024000000BA
:2003F000FFFFFFFF3C11002004000000000000000000000038000000F4010000280000002B
:20041000FFFFFFFF4411002004000000000000000000000054000000000100003C000000C6
:1804300018000000000000000000000040040000080000000000000050
:1804480018000000000000000000000058040000080000000000000020
:18046000180000000000000000000000700400000800000000000000F0
:0804780001000000B89700002C
:0404800008F090BC34
:040484000100000073
:0404880000000E0062
:04048C0000000F005D
:040490003200000036
:040494000100000063
:04049800941000209C
:04049C00000200005A
:0404A0000000000058
:0404A40001CA011078
:0404A8000000000050
:0404AC00000000004C
:0404B0000800000040
:0404B4000000230021
:0404B80018130020F5
:0404BC00010000003B
:0404C000DC1000202C
:0404C400080000002C
:0404C8000000000030
:0404CC00000000002C
:0404D0000000000028
:0404D4000000000024
:0404D8000000000020
:0404DC00010000001B
:0404E0008013002065
:0404E400060000000E
:0404E800010000000F
:0404EC0038120020A2
:0404F0000000000008
:0404F4000000000004
:0404F80000020000FE
:0404FC0000000000FC
:02050000704742
:020502002900CE
:020504000100F4
:020506002500CE
:020508002D00C4
:02050A002E00C1
:02050C002F00BE
:02050E000100EA
:0105100001E9
:080514000300000094970000B1
:08051C000000000000000000D7
:0405240000000100D2
:0405280000000300CC
:04052C0087C401106F
:04053000380500008A
:040534003805000086
:0405380000000000BF
:04053C00900000002B
:040540009000000027
:0405440000000000B3
:04054800DC100020A3
:04054C006B8D0000B3
:040550002000000087
:0405540044970000C8
:0405580044960000C5
:04055C000DC30110BA
:040560007F7A00009E
:040564004B810000C7
:0405680099C801101D
:04056C009BC8011017
:040570000000000087
:040574006797000085
:0405780008950000E2
:04057C0020950000C6
:04058000F0940000F3
:0205840008006D
:0205860009006A
:02058800010070
:02058A0000006F
:01058C00016D
:040590000000000067
:040594000000000063
:04059800000000005F
:04059C00000000005B
:0405A0006B9200005A
:0405A400B97000002A
:0405A800918000003E
:0405AC00757800005E
:0405B000D3750000FF
:0405B400A578000026
:0405B800C156000028
:0405BC00D18F0000DB
:0405C000895B000053
:0405C40011C8011049
:0405C80021C8011035
:0405CC000800000023
:0405D0002400000003
:0405D400180000000B
:0405D80028000000F7
:0405DC0020000000FB
:0405E0003C000000DB
:0405E4000C00000007
:0405E80034000000DB
:2005EC002DE9F04FCD4C6178C2A60FF210390FF21C380FF21C3BADF12C0D002900F0488190
:20060C00491E0FF2383A00F0CD80491E40F03A82010979D2228A4009C0F034824FF6FF7000
:20062C00904261D0A07A90425EDD21786069A36A891E17D0491E02D0491E4AD054E030F871
:20064C00120004F144010880002004F017F90746A0691FB1162F48D1C4A200E0C8A2002141
:20066C0000913EE003EBC203DF88002F3CD0657A1DB330F8120012210023012207F05CFEB7
:20068C00039000B3228AA16A01EBC201C988ADF808100127ADF80A70217A017000258DF897
:2006AC00105002A88DF8115008F0DCF8051C0BD002A8122107F08EFF05E0ADF8087002A869
:2006CC0008F0C4F805467DB9607A80F0010060720AE030F8120008F0B2FD00210091A06936
:2006EC00BFA20B4607F0F5FCA069002565702946324625700B46009507F0EBFC2946009111
:20070C00A66948463546BCE0A27AE0890027BB46B9465E4602E0401C80B2E081002F40F099
:20072C00B181A169824224D0824237DD616931F810104FF6FF738B4230D0084605A907F057
:20074C001BF8E3892382CDF800B0A069C6A259465B1C07F0BEFCA5690DF1160005F036FD72
:20076C000246CDF8009059465B46284607F0B1FC11E00846CDF8009052465B46594607F01B
:20078C00A8FC0096A069424659465B4607F0A1FC4FF6FF702082A27AE08901278242BAD15C
:2007AC00801AB9E7217902093AD24009C0F06A81E079012826D0A079617981421DD004EB54
:2007CC00C00000F18A0190F889000F4607F094F80120E07100250095A069ACA229460B46A5
:2007EC0007F077FCA669384605F0F0FC294602462B460091304607F06CFC00215A464F4631
:20080C000D4690E04FF6FE7008F019FD00250095A069A1A229460B4607F05BFCE57131E1CC
:20082C00012932D0677987B3A079A0A2401CC3B29F42A069A37115DC9F4210D00025A5714F
:20084C0001232946009507F044FCA079A66904EBC0008A3005F0BAFC0095294652E752461C
:20086C00474678E000265B1C0096314607F031FCA079A56904EBC0008A3005F0A7FC31461A
:20088C0000912E4607460D4632E08BA007462CE02778010980F0AB804009C0F0F380667982
:2008AC00381C72D0401E0FF23C2891A74AD0401E022816D9C01E40F0E5800DF1050008F09C
:2008CC008FFB9DF80500002807BF0121081C0020012101AA8DF8040040F2053002F026F9C6
:2008EC00D0E006F08FFBD8B978A700250095A6693046B2E05363616E202D3E003C2D204E54
:20090C00657874204F7074696F6E00C000C046C0436F6E6E656374202D3E00C0080200201C
:20092C0002210025424661700095A06929460B4607F0CFFB0095A66938468EE743616E63DF
:20094C00656C00C0A0691EB900256EA7009584E00121424661700025294600950B4607F0FB
:20096C00B8FB29460091A0693A4688E0416C7265616479205570646174696E6700C046C0E3
:20098C005570646174696E6700C0A57A06F03AFB854222DD2179A06901290AD100255FA271
:2009AC00294600950B4607F094FBFFF763FD257168E00121002521715DA2657129460B46AE
:2009CC00009507F086FB29460091A06942462B4607F07FFB07F0A1FB54E0002558A73AE086
:2009EC00446973636F6E6E656374696E6700052F1ABF781CC0B20020207000250095A0691D
:200A0C004A4629460B4607F064FB0095A069424629460B4607F05DFB0095A069424629465A
:200A2C000B4607F056FB0095A069424629460B4607F04FFB2078F0B1401E12D0401E0ED035
:200A4C00401E07D0401E03D0401E1BD142A702E045A700E048A70095A069294684E74CA7E9
:200A6C007FE75F467DE7C046436F6E6E656374696F6E20256400294632460091A0692B464A
:200A8C0007F027FB0BB0BDE8F08FC046436F6E6E656374696E6700C0436F6E6E6563746951
:200AAC006E672073746F707065642E0044657669636520256400C0464E6F20446576696341
:200ACC00657320466F756E6400C046C04E6F20436F6E6E65637465642044657669636573FD
:200AEC0000C046C02D3E2053656C65637400C0463C2D2042726F77736520446576696365C8
:200B0C007300C0464E6F20446973636F7665726564204465766963657300C04644697363FF
:200B2C006F766572792043616E63656C6C656400446973636F766572696E672E2E2E00C012
:200B4C0043616E2774207363616E3A6E6F206C696E6B732000C046C0416476657274697397
:200B6C0065202D3E00C046C0446973636F6E6E656374202D3E00C046436F6E6E65637469E5
:200B8C006F6E20557064617465202D3E00C046C04741545420526561642F57726974652072
:200BAC002D3E00002DE9F04F09AFADF13C0D00900292388801911E46ADF83400101C08BF24
:200BCC00002000F0828100274FF0010B00F10109B846DA466BE1252940F062811078521CC8
:200BEC0002922D2818BFADF8228004D11078ADF822B0521C029230281CBF4246434605D1F2
:200C0C00114608785B465A46491C02912A284FF0FF3516D128460B93346809900299CDF86B
:200C2C001C80E01C4B1C20F00300001D306050F8044C08780293002C44BFADF822A0644200
:200C4C0012E0444609E0610001EBC40140180299A0F130040878491C0291302801DB3A284B
:200C6C00F1DB0B93294609912E282BD10299087843462A2801F10101029111D10993306810
:200C8C000794C01C20F00300001D306050F8045C002D48BF454608780995491C029112E0A2
:200CAC0045460AE0690001EBC50140180299A0F1300508782B46491C0291302801DB3A2860
:200CCC00F0DB099307940AB122460B926C2804D04C2818BFADF8208005D102990878ADF8B8
:200CEC0020A0491C029103A9CDF8288007AB0E9164280C9300F08B80692800F08880BDF862
:200D0C0034C0752872D078286ED06F286AD0702850D063283DD073281ED00198029901280F
:200D2C00A1F10101029115D96B490C68B5F1FF3F03D0A84288BF6D1C00D8019D0995684637
:200D4C0002A9324607ABA047C71902990A9801F1010974E040462AE030680299C01C20F0AF
:200D6C000300001D306050F8040CBCF1000F01F10109014608B956A001460E9107F0C4FF09
:200D8C000A90B5F1FF3F5BD0A842C4BF281C0A9056E03068C01C20F00300001D306010F8E1
:200DAC00040C5D468DF80C0002990A95584601F1010945E0082035680B90E81C20F0030073
:200DCC00001D306050F8041C0822102307A804F05DFA401E0E904021017002990E9801F19A
:200DEC00010929E0082302E0102300E00A230299306801F10109C01C20F00300001D3060BC
:200E0C0050F8041CAA42BCBF2A1C0B9210E00299306801F10109C01C20F00300001D306059
:200E2C0050F8041CAA42BCBF2A1C0B926FF0090307A804F02BFA0E900C9D281A0A90079CFB
:200E4C00BDF82250241A65B906E06846202101AA06F0AFFF079C7F1C641E0794F5D50A9818
:200E6C0000E007940546401E0A9075B9BDF82200E8B10798401E079019D46846202101AAEF
:200E8C0006F097FF07987F1CF4E70E98411C0E91017801AA684606F08CFF0A987F1CE1E7AB
:200EAC00684601AA06F085FF7F1C09F101094A46029812F8011C401C002902907FF48BAEA0
:200ECC00009808B14146017038460FB0BDE8F08F286E756C6C2900C0C49700002DE9FE43DE
:200EEC00AF4C0F460646F80B80F03581B80880F0C7806069B90F67D2A07A002848D1380944
:200F0C0048D30025657001262672284603F07DFFA44808F05FF8A4492A4604F14C0008F043
:200F2C008BF9607901281AD1A079C0B99F4E306870B107F099FE6169236A3268401A000B18
:200F4C00E061C018B0EBC21F28BF256208D2206204F1C8004FF0005107F018FE31E06671E4
:200F6C0004F1380140F60900088094F8450000F0F00040F0010084F84500658794F8440011
:200F8C0000F0F00084F84400E563894E316018E0380914D2B80BC0F0FB8004F1280008F0D3
:200FAC005AF9061C08D0706830B17568F068B6F91C1082A20CCAA84727F40057E8E00020CC
:200FCC00A07227F00807E3E0D8B1042007F03AFBB8B107F049FEA0616169814226BF401ABD
:200FEC00401E401A000BF060F06840F6C41100F58D708142F06003D340F2EE22824200D9B5
:20100C00F1600025D6F818C06561BCF1000F0FD094F8450010F00F0F0AD1708C40F6090141
:20102C00814205D167A20CCA30466FF48071E047604904F14C002A4608F0FEF8A07950B1D9
:20104C000220ADF80000684607F0D6F9A571BDF80800A4F8A000012060702079A846401C66
:20106C002071192084F8078007F0FEFE756925B156A20CCA30464146A84727F0005787E061
:20108C0004F13009484608F0E6F8061C5AD006F029F84FF00008B269C6F818807068B8B156
:2010AC00F07F42F00202002300F00700401E07D0401E03D0801E06D146A002E047A000E0FB
:2010CC0048A090E80C007568F068B6F91C10A84708F052F90546B4F93600401C6FF31F301B
:2010EC00E086206B1F30017801F07F010170484607F0B4FC284608F03BF9F068B0F99410D5
:20110C00B4F9362091421DD1217801291AD090F8965095B9056885B1E1680968B1F1FF3F59
:20112C0010D0254909687030B5FBF1F108F01CF9F068703008F014F904E080F896804046B0
:20114C0004F0C0FC484608F086F827F0020708B147F002071CE008F00FF9014604F12C0052
:20116C0008F079F80646B569084608F001F9A8080CD25EB1B069A843B061706830B12A4675
:20118C00F068B6F91C1075680023A84727F4804727B104F1C800394607F0F8FCBDE8FE831A
:2011AC00B80900204D540000258200008020002000100440F9300000B09700000000000076
:2011CC002000000000000000000000020000000000000004000000000000001000000000CD
:2011EC000000004000000000000000202DE9FE430746B74EB87875697378002800F0DA806F
:20120C00401E00F0CC80801E00F0C080401E0FF2082800F0A980401E0FF2DC1951D0401EDF
:20122C0012D0401E00F0AC80801F40F0E2803869397B04F0DBFD002800F0DB803979781D3A
:20124C0004F0ECFFBDE8FE83B88806F047FDB179F081814240F3CD803169776A4FF6FF72F4
:20126C00002421F8102007EBC001CC8005F0CAFE03464A4600942146284606F02AFF25466D
:20128C000095706960A22146234606F022FF05F0B9FEB179491E81420DD100957069424617
:2012AC002146234606F015FF2146009170695FA22B4606F00EFFF089716A01F83040BDE8A0
:2012CC00FE837978002940D100245CA22846214600940B4606F0FDFE756905F093FE0346DC
:2012EC004A4600942146284606F0F3FE7889F47006F0A0FE05F086FEB17981420EDC8DF834
:20130C00044040F20530012101AA01F00FFC2146009170694CA2234606F0DBFE00947069E9
:20132C0021464EA20B4606F0D4FE7569381D04F04DFF2146024623460091284606F0C9FEEA
:20134C00788905F097FEBDE8FE83002444A22846214600940B4606F0BCFE2146009170698B
:20136C007B7843A2054615E005F04CFEB1798142D4BF42A24246002300937069054608E05C
:20138C0000210091FB7843A22846EBE7002345A200931946284606F09CFEBDE8FE830021B6
:2013AC00317043A22846009106F093FE7078B070BDE8FE837889002421463EA230810B4679
:2013CC002846009406F085FE7569F81C04F0FEFE2146024600940B46284606F07AFE2146CD
:2013EC000091706937A2234606F073FEF81C07F0C3FCBDE8FE83C046436F6E6E65637465A9
:20140C006420746F20256400446973636F6E6E65637465642100C046526561647920746FBE
:20142C002041647665727469736500C0526561647920746F205363616E00C046436F6E6EE8
:20144C0065637465642100C043616E2774206164763A206E6F206C696E6B730000C046C054
:20146C00436F6E6E656374204661696C656400C0526561736F6E3A20256400C043616E272D
:20148C007420416476203A204E6F206C696E6B7300C046C0506172616D20557064617465DF
:2014AC00202564004164766572746973696E6700256400C0436F6E6E656374656420746F18
:2014CC00203000C0496E697469616C697A6564000C0200202DE9F043ADF1240D06F0E2FC60
:2014EC0007F0E0FAAC4C206203F098FB4FF0804005F072FAA021A061062005F029FE072084
:20150C00A02105F025FE0820A02105F021FE0920A02105F01DFE0A20A02105F019FE0B20CD
:20152C00A02105F015FE02204FF47A6105F010FE0C20502105F00CFE0D20502105F008FE5E
:20154C000E20502105F004FE0F20502105F000FE1020502105F0FCFD1120502105F0F8FD3B
:20156C001220502105F0F4FD1320502105F0F0FD1720502105F0ECFD1820502105F0E8FD47
:20158C001520C82105F0E4FD1620C82105F0E0FD19204FF47A7105F0DBFD1A20002105F0D6
:2015AC00D7FD07F0D8FD01274FF448765020ADF808004FF47A758DF804700023ADF80A60DC
:2015CC009846ADF80E5001AAADF806303946ADF80C8040F2053001F0A9FA40F20630022162
:2015EC000DF1060201F0A2FA04F171024FF44270172101F09BFA04F1340240F20730072175
:20160C0001F094FA40F21130022102AA01F08EFA40F2123002210DF10A0201F087FA40F23F
:20162C001330022103AA01F081FA4FF4457002210DF10E0201F07AFA0820394604AA8DF8B7
:20164C00100040F2044001F071FA07F0E7F8A07A400006F0A1FE606148B1A67A46B14FF6C1
:20166C00FF7135466D1E20F8021BFBD100E0A67AF00006F091FEA06260B1A27A52B10146F9
:20168C0043461046CB800B708B804B80401E01F10801F7D107F0C2FC07F083FD07F0D1FDB1
:2016AC0007F0D8FA06F076FC02258DF811704FF003098DF8125004268DF8139037498DF837
:2016CC0014600DF119000A68097902600DF1110201714046394604F099F938460DF112027F
:2016EC00014604F093F939460DF11302284604F08DF9394605AA484604F088F905210DF148
:20170C001902304604F082F907F0D6FA06F08EFB07F029FD05F036FD8DF815508DF816703D
:20172C008DF817808DF818704FF480600DF1150105F0F4FC40F202400DF1160105F0EEFCF0
:20174C0040F203400DF1170105F0E8FC40F2064006A905F0E3FC06F0A3F9CDF80080A0693E
:20176C00414607A20B4606F0B4FC41460091A06905A2434606F0ADFC09B0BDE8F083C0466F
:20178C005363616E202D3E003C2D204E657874204F7074696F6E00C008020020A297000049
:2017AC002DE9F04F0128ADF1140D40F0F280DFF81492D9F8DC00012840F0E9800220C9F86F
:2017CC00DC0007F0C9FD0290012004F0ABFF20B101210646C9F8DC10D5E007F0B9FD039032
:2017EC006E484FF00008C0F80080012006F02AFF012818BFCDF8008004D1404604F022FBB7
:20180C000120009066486E4CC0F800801934D4F8FF0F112007F040FC00280CBF464601263A
:20182C00102007F039FC08B146F002060F2007F033FC08B146F004060B2007F02DFC30B1CF
:20184C00584800685849006B0246088890470A2007F022FC0028404618BF01204FF0805BBA
:20186C000BF5DC7528B128685049006B0246088890474F480127076028688069014646F0D3
:20188C00200088474B48076007F000FC00F001010191400815D2484807F047FB8246BAF171
:2018AC00040FF8D0BAF1010F06D1DBF8D801406802464148032190474049086820F0030083
:2018CC000860404600F080F82868D4F8FF1F806B8047019801280ED0BAF1010F06D1DBF875
:2018EC00D801406802463448394690473349086840F0030008602A48076028684069014661
:20190C00304688470B2007F0C7FB28B128682649C06A0246088890470A2007F0BDFB28B12F
:20192C0028682249C06A024608889047204807600322C9F8DC201F4BC3F800802868406B36
:20194C000146304688470128F8D1042004F0EAFE124807601A48D4F8FF1F01688909FCD326
:20196C000098012802D1384604F06CFA07F088FB082004F0D7FE06460398C9F8DC7007F099
:20198C00E3FC04F015F8029807F0DAFC02E0042600E00126304605B0BDE8F08F0C400940FD
:2019AC0000022243B801001086940000829400002820086080010443004003402422084032
:2019CC0014100940740F00202DE9F84F82467A48DFF8D89135380068800880F0D88006F0A9
:2019EC0089FA054678480830D0F8008000244FEA2876761C5FEA98500AD2C5F13E0015F139
:201A0C000A0F4FEAE000D8BF08208642B8BF061C634FD7F87C01C0F3046007F07FFA83461A
:201A2C003868C0F3044007F079FA06EB0B020090162A05DA12F10A0FB8BF6FF0090200E00F
:201A4C001522584B584F02F01F0141F4F8511980396811F0030F18BF0124C90828BF44F034
:201A6C000204BAF1000F18BF44F00404494691F90730EB1A052B04DA8B79A34208BF888864
:201A8C0064D0DFF82CE10F2DA5F10F0C25DB0CEB0513A3F1F00C4FEA2C27072F88BF07275F
:201AAC003E46062E88BF06265EF82600042303EB86037646F3581B1A03F0FF06E00824BFD6
:201ACC00C3F307200644A00824BFC3F307400644600828BF06EB136601E0002637465EF86E
:201AEC0027E0E0080EF0FF0324BFCEF307200344A00824BFCEF307400344600828BF03EBC2
:201B0C001E630098B6B2ACEB07277E43801A06F1800603EB1623D8BF0120342208F0FF0768
:201B2C0042437A43B2FBF3F04FF6FF72824238BF101C802D80B2888005DA15F1800FB8BF58
:201B4C006FF07F0500E07F25CD718C71194A12681F280A604FF0000208D340F2FF11814228
:201B6C0006D24008521C8142FBD301E01F208880124F11490F38000942EAC00247EA0200E6
:201B8C00C1F8FB0F0026C1F8FF6FBDE8F88F0D4F0B4E494608203760891D0870BDE8F88FB0
:201BAC003C1100506E62084024220840782000209C130050082009403500094000E7A48025
:201BCC0030100940FDFDA400AC3F00502DE9F0411C4615468C4208BF854282BF00230022B1
:201BEC00E5E0002C08BF002D0AD100290EBF00286FF000006FF0000100F0E1F8BDE8F0815D
:201C0C005FF000085FF0000E002C08BF8D429CBF2C1C0025070C47EA01470E0CB44208BF17
:201C2C00BD429EBF5FEA044444EA15445FEA0545070A47EA01670E0AB44208BFBD429EBFB6
:201C4C005FEA042444EA15645FEA0525470847EAC1774E08B44208BFBD4200F2938087088F
:201C6C0047EA81778E08B44208BFBD427CD8C70847EA4177CE08B44208BFBD4266D80709F1
:201C8C0047EA01770E09B44208BFBD4250D8470947EAC1674E09B44208BFBD423AD8870936
:201CAC0047EA81678E09B44208BFBD4224D8C70947EA4167CE09B44208BFBD420DD8E601A8
:201CCC0046EA5566EF01B14208BFB84201D3C01BB14158EB08085EEB0E0EA60146EA95663E
:201CEC004FEA8517B14208BFB84201D3C01BB14158EB08084EEB0E0E660146EAD5666F01C4
:201D0C00B14208BFB84201D3C01BB14158EB08084EEB0E0E260146EA15762F01B14208BFEE
:201D2C00B84201D3C01BB14158EB08085EEB0E0EE60046EA5576EF00B14208BFB84201D3EC
:201D4C00C01BB14158EB08084EEB0E0EA60046EA9576AF00B14208BFB84201D3C01BB1411D
:201D6C0058EB08084EEB0E0E660046EAD5766F00B14208BFB84201D3C01BB14158EB0808B7
:201D8C005EEB0E0EA14208BFA84201D3401BA14158EB08085EEB0E0EA34208BFAA423EBFE0
:201DAC002D0A45EA0465240A89D3734642461E4617460B46024631463846BDE8F081704761
:201DCC002DE9F843814607F055F9002100B901216B4E30680028FCD06C4D01242D1DEF6AD8
:201DEC00346009B107F04CF9DFF89881C7F3072008F1BC01086007F03DF9002100B92146F0
:201E0C0030680028FCD02F68346009B107F038F9C7F38440C8F8C00007F02CF9014600209C
:201E2C0001B92046014630680028FCD0ED69346009B107F025F9C5F38120C8F8D000B9F553
:201E4C00C061C8F8B81000F0968098F8D80068B9C8F8D410D8F8C000C8F8C800D8F8BC7086
:201E6C00C8F8C470D8F8D060C8F8CC60D8F8D410D8F8BC60002954BF02206FF0010045468D
:201E8C0005F1C8031A6801EB41014018411000EB917002EBA0021A60D5F8C810C5F8C460A1
:201EAC0000291CDD1E293DDDD5F8CC0030B93429B4BF15391E21C5F8C81025E02A29BABF4E
:201ECC00D5F8C8000B381E20C5F8C800D5F8C4003F28B4BF401C3F20C5F8C4001FE0D5F8E8
:201EEC00CC00032812D011F10B0FC6BFD5F8C8000B30201CC5F8C800D5F8C4000028CCBF87
:201F0C00401E0020C5F8C400032009E011F1150FC6BFD5F8C8001530201CC5F8C800002044
:201F2C00C5F8CC00B5F8C400174E30214FF47F4208230090304604F089FB009404214FF43C
:201F4C0000321123304604F081FBB5F8C80004214FF4F80212230090304604F077FBB5F804
:201F6C00CC0020214FF440620A230090304604F06DFBBDE8F883002088F8D800BDE8F8831C
:201F8C0000800C40740F002000A00C4000A00C402DE9F04FADF1840D00F08EFF04F032FBCC
:201FAC000026012804D106F0E1FC022808BF012658490868C0F38150012806D151F80C0C10
:201FCC000127010E07FA01F006435348007806F0EDF8524D2C46286038B1FF2204F14001BC
:201FEC0007467F1E01F8012BFBD14D4909684FF0000901F0FF02FE2A1BD0DFF824C101F0F9
:20200C00FF074A460123FF2F0CD0B8427FD903FA07F73E427BD101F0FF0147EA090961182A
:20202C0081F840205CF8041F521C01F0FF07FE2FE9D1092001F0FCFC3948002124220823D3
:20204C00606001A807F078F94FF0010804F1240001AA8DF81C80414607F06AF9236843B314
:20206C00002794354FF0040BBA4608FA07F0064219D119EA000F04BF07F0FF0141F4C041E9
:20208C0005D0E019264990F8400051F82010254801F020FFF8B24FF0FF3106F0FDFA2368A8
:2020AC00C5F800A001E0C5F800B07F1C2D1D9F42DBD30AA800213022082307F035F900255B
:2020CC00FF2010210AAB1290174A009504F1080007F026F916A828220823294607F01CF996
:2020EC0004F1600016AA1C9510491D952B4607F00FF90F4951F80D0C20F4F85040F40050F9
:20210C0041F80D0C4746C1F8FF7F0A4E376021B0BDE8F08FB43F005089200020DC1D002094
:20212C0078950000007FC767C1860000016800000D300940080009402DE9F843674C04F159
:20214C00240007F088F815460E46009007F014F905F001078146B6F1FF3F0CD1A06A20B92C
:20216C00B4F93600401C06B202E0A06AB0F91C60002084F8A300304605F09AFD03260028B9
:20218C0000F09B80A16ADFF84081814269D0009FB8422ED03FB100990A68904209D00968DB
:2021AC0000290091F7D1832E41D0484607F0E0F83DE004F1A40006F093F900980168AA0887
:2021CC0002D20A6802600846002202600091009818B9484607F0CCF828E0C17F41F00401B8
:2021EC00C177684606F03AFC0146404605F0D2F8EDE704F1A40006F073F9A8083ABF606AF3
:20220C00006800206062484607F0B2F80099C87F40F00400C877684606F020FC0146404659
:20222C0005F0B8F8009808B1A808EFD28326E07988B9207A012843D0244806F0CBFE0221C4
:20224C0004F1C80006F0A2FC6078012838D0204806F0C0FE34E004F1C800022106F096FC80
:20226C002EE0A90803D3616A009100266662C27F0121B9401143C17707F06AF80446002FB9
:20228C0014BF1448144806F0B7F8484607F070F8A80801D3009820B9204607F055F88326CD
:2022AC000EE0C17F41F00401C177684606F0D6FB0146404605F06EF8ECE7484607F058F831
:2022CC003046BDE8F883C046E8090020E90E0000D93B00000100020401000104B80900204C
:2022EC002DE9F04304466668A7680D46ADF1340D07F042F83178012903D107F039F8002010
:20230C00A3E04FF0010886F8008007F031F8287870706878B07068687060A868B060E86838
:20232C00F06028693061287D3075687D7075A87DB075A869B061287F3077687F7077A87F5C
:20234C00B0774FF00009C6F82090C6F830904D4675627563B562B56386F82C50102386F8FA
:20236C003C3086F82D5086F83D50786801F060FB2046FDF75DFE204602F0D8F870B9344831
:20238C000068C16838688847786801F0E7FA06F0F3FF357006F0ECFF2C4655E001A8294652
:2023AC003022082306F0C0FF0694387BCDF80090284A0990B96801AB06F1680006F0B0FF61
:2023CC0001A829462822082306F0A6FF05942249386901AA2B46079006F1840006F098FF69
:2023EC0001A829462422082306F0A6FF8DF81C80B07838B906F1B800294601AA06F098FF1D
:20240C0016483061707838B906F1D400294601AA06F08EFF1248F06001A82946242208234D
:20242C0006F072FF0695ADF814500E49079406F1F0000A2201AB06F063FF0B4A06F15400DC
:20244C000421234605F07EFD20460DB0BDE8F083D0010010C53600000164000093910000D2
:20246C008B91000059460000858E00002DE9FC415E4C574D574EDFF860815A4F94F8E4105B
:20248C00481E0B2861D8DFE800F07B2C43062343062343067664042907D001220A2945F86E
:2024AC00212C14BF0220032004E02021012045F8211C024684F8E200002045F8390C082774
:2024CC00C5F8FF7FC5F8F37F45F8392CBDE8FC81052914BF09200620002584F8E400356058
:2024EC0070E094F8E1700120383D002FC5F81B0004BF0620002102D00021F160032084F819
:20250C00E400032045F8010C31603068800859D294F8E400012503280DD0002140466022BB
:20252C000523009104F092F894F8E400062814BF0A200720D1E70220009000216022052361
:20254C00404604F083F80420C7E706F0D5FEBDE8FC812249002622480E60012505600E209B
:20256C0001F0FCF9022005F0BFF884F8E45084F8E360BDE8FC81002038600C2578601FE04A
:20258C001948006800680146202088472C3D41F61D560F2000214FF4C072072345F8010C5C
:2025AC004046C5F803600225009504F04FF8404600214FF4C072072304F04EFA0120386037
:2025CC0084F8E45004F1780006F0CAFEBDE8FC8139400C4038600C4000A00C402C500C4095
:2025EC0004800C4034600C40A0010010740F00202DE9F84F9A4693460E46814606F0BCFEEA
:20260C00514C0090B4F93610B4F934000AAF401A40F6F8710140082980F28780B4F934002F
:20262C00401C6FF31F30A086B4F9348005F024FF054609F1700005F053FFAE6085F81EB08D
:20264C00C5F804A0A5F81C80C5F80C9097E80C0041A003C8002605F110071040194087E8F9
:20266C00030004F12400EE770768002F50D1294604F090FE002851D0A9F89480E87F40F088
:20268C008000E87789F89660607A40B1607830B10120A07266722779A671781C20710098D5
:2026AC0006F066FEA06A00284BD1607860BBE079012846D006F060FE0646207A00BBA868D6
:2026CC0003F0BEFE224B2149E2681B68086040B9304606F04DFE04F1C800042106F056FA5B
:2026EC002FE00968D26804F1A400891AB1FBF3F106F03AFE04F1A40006F032FE30461EE0E7
:20270C00144901200870F9E7192006F0ADFB18E004F12400294604F03DFE48B9B4F934006F
:20272C0000F6FF706FF31F30A0866FF0010805E0A9F89480E87F40F08000E877009806F04B
:20274C0017FE4046BDE8F88FB809002080200020B097000088200020F1EFFF9F2000000058
:20276C002DE9F0410646DFF84481514DB2780024ADF1180D101C61D0801E46D0401E0128D7
:20278C002BD9801E0CD0401E7BD0401E02D0401F70D07EE006F092FC707800286ED178E0AE
:2027AC007078711C98B9F0787289337B311D04F0F3F9307B04286CD14046012104706A4628
:2027CC008DF8001040F2053000F0B0F961E00878312804BF404604705BE0777897B9284699
:2027EC00018A032A0BD0C278077911B9012A50D106E017434DD0943004F0E8FB49E0012424
:20280C00C47046E00C2F39D14CE07078771C00283FD12846F278C1793AB9943006F01CFB58
:20282C0048B9012006F05AF905E000F17502204603F02CFC3870387800B32AE0707840BB5B
:20284C0005F120040220102104F1160204F0F0FD0320102104F1260204F0EAFDF01C016850
:20286C0021608088A080697905F15602012003F00DFC0EE0B088317B05F0B0FA012C08D0E0
:20288C0010E0B0880DF1020104F076FFB08805F032FC40461930006820B1016811B1304696
:2028AC00884700E0012006B0BDE8F081D3060020D0060020FEB54E4D074628680E4620B929
:2028CC004FF0004004F088F82860002427A2214600940B4605F0FDFB384628A2801E04D091
:2028EC00801E33D0401E1CD006E02868012E14BF25A62AA600942CE00094286821460B4652
:20290C0005F0E7FB2346009328682AA2022105F0E0FB01208DF805009DF805000028FBD150
:20292C00FEBD0094286821460B4605F0D2FB23460093286825A2022105F0CBFB01208DF85B
:20294C0004009DF804000028FBD1FEBD0094286822A621460B4605F0BCFB23460093286843
:20296C000221324605F0B5FBFEBDC0463E3E3E535441434B20415353455254002A2A2A4565
:20298C0052524F522A2A2A003E3E20494E5445524E414C204552524F522100C03E3E2049FF
:2029AC004E5445524E414C204657204552524F522100C0463E3E2044454641554C54205355
:2029CC0050494E4C4F434B2100C046C03E3E204943414C4C2041424F525421003E3E204F4F
:2029EC005554204F46204D454D4F52592100C0462002002038B505464B4C6878162813D03B
:202A0C0004F11000297900687E2906D07F2917D1002100912B892CA203E0002100912B7A20
:202A2C002DA205F056FB0BE06888042105F04EF830B9012002F0D8FD1C340020256038BD7F
:202A4C0004F0E0FA002838D0688805F047F9608129790B2922D0012902D12A7A0A2A1DD0DC
:202A6C0013290CD0012902D12A7A122A07D0216A11F8300008B3284600F0ACFA1DE0206975
:202A8C00012909D02178491C17A2CBB2237000215B1E0091DBB20EE017A209E02069012965
:202AAC0005D000210091EB681B7817A203E01AA2002100912B7B05F00CFB297905F1080051
:202ACC0005F088FD012038BD4D54552053697A653A20256400C046C046432056696F6C615C
:202AEC007465643A2025640057726974652073656E743A20256400C0577269746520457240
:202B0C00726F7220256400C052656164207273703A20256400C046C052656164204572728E
:202B2C006F7220256400C04610020020F8B50E46A0F201311746022940F28E80474D091F7E
:202B4C00082904D9163916D0E9390FD006E0DFE801F0464071623932832B23C028287BDA8D
:202B6C00022E79D1398804F0F3FAF8BD012E73D138780C3516E0012E6ED1ED1C28780128DE
:202B8C006AD069783878687011B900283AD1F8BD3878002860D13BE0012E5DD13878042877
:202BAC005ADA0B352870F8BD012E55D13878082852DA0A35F6E7012E4ED1387804284BDA7C
:202BCC000935EFE7012E47D13878042844DC0835E8E7022E40D1388810352880F8BD012EB4
:202BEC003AD12879012837D02C463878E178E07061B988B304F006FA21788142DCBF0020C2
:202C0C00E07029DD012005F069FFF8BD387818BB06F0CAF8F8BD05F1750400211F222046F8
:202C2C0002F0BAF839463246204601F001FBEE7100200DE005F1560400211F22204602F024
:202C4C00ABF839463246204601F0F2FA6E7101203146224603F01AFAF8BDC046D0060020F4
:202C6C002DE9F041424C474D8046C8F38140401E02D0401E2AD025E0284620300168880C55
:202C8C0020D24FF4804020603A48D0F802204B0AC1F3033703F0800322F08F02134347EA64
:202CAC000302C0F80220D0F801300E1266F30303C0F80130026801F0E70722F0E70247EA53
:202CCC00020102E04FF00041204601602A4E06F108000068C0F3C0070FB94020A0624FF4F6
:202CEC000070206406F0A0F840F0300084F8C800C8F3815038B3401E03D0401E1ED002218B
:202D0C001DE0012005F09EFC07460420394603F04BFB042005F096FC8742FAD1366826F0DE
:202D2C007F4004F0C9FC15480068036807214FF06022300E98474FF48060206003210420EE
:202D4C0003F032FB06E00420012103F02DFB0C4804F0B2FC284600680B4947F6180700F094
:202D6C003F0084F8CB0F094E0F803068BDE8F08140A00C400A600840A83F0050B401001044
:202D8C00BD3786006C13005070B00C402C2009402DE9F0430646880FADF1140D7FD302F0AE
:202DAC0063FE434D4FF000081C35C5F800803D4845F81C0C012002F028F83B4806F00AF9A8
:202DCC003C48434640F60A0200F13801438790F84440C0F83C8090F845700A8004F0F00475
:202DEC0080F8444007F0F00444F00104B76880F8454081467B803C1D00E03C1D276817B1E0
:202E0C0038888242F9D12160607A00F0F000607209F1240006F01FFA80680088D21F8242F9
:202E2C001DD0521C82421AD006F120000788B7B196F82C2096F82D70C6F8248002F0F00224
:202E4C0086F82C2007F0F00242F0010286F82D20C9F83C00487B738400F0F0004873B06849
:202E6C00694605F0D9FA684605F0D6FFB06802F064F928680028FCD0C5F80080012005F019
:202E8C00E1FB012808D0607A00F0F00040F001006072064806F09EF8B06845F81C0C05B080
:202EAC00BDE8F08301010E04E90E0000A55E000000100440B80900202DE9F041444C94F848
:202ECC00E700ADF1280D00286FD1394F387B01250021242284F8E7507E6884F8E6000823D6
:202EEC00C4F80C6101A806F00FFA002604F10C00069601ABADF814602E490796324606F0EB
:202F0C00FFF92D4904F1300001AB324606F0F8F92A4904F1540001AB324606F0F1F9B86827
:202F2C00014628468847DFF89C8025487B7B0078D8F80410C1F381571BB1032F03D184F875
:202F4C00E150032F16D0022F14D0012F26D103201D4C009031464FF040521C23204603F0E4
:202F6C0075FB009531464FF400720923204603F06DFB13E0022004F0CFFB032F0CBF4FF414
:202F8C007A7142F21071114800685434B1FBF0F1204606F0E9F9204606F0E2F9D8F800006A
:202FAC00C00802D2304604F0B7FB0AB0BDE8F0816897000007530000C9450000214D0000A8
:202FCC0089200020B03F005000A00C40B0970000740F0020F0B504466088ADF11C0D04F075
:202FEC007DFE414A0146921E907A5182884264DD906A267992697F2E154657D0CB00C15C35
:20300C00012946D0022913D0032956D1092E54D12789002F51D0E1684C78097828A7C01872
:20302C003A4601EB0421C18000210B46009141E0072E14D127896FB1E1684D7809781A18E3
:20304C0001EB05215180E168CD78897801EB052191802679072E02D161781A2901D0012E0C
:20306C002BD119184F8847B30322C254ADF8047088880226F125ADF80600FF238DF80860EA
:20308C0001A98DF8095060888DF80A3005F0A4FE13E0032E11D113490988ADF80410022789
:2030AC00C754608801A903F083FB06E0002109A200912389284605F00CF807B0F0BDC04626
:2030CC0053696D706C652053766320466F756E6400C046C04D54552053697A653A202564B8
:2030EC0000C046C0A09700000A020020F8B505F055FC404E3E4F0446A00823D3B96A09B3C6
:20310C003D4600200B698A69A86204EA0300104340F0020006F1080288610B691068984368
:20312C00106001F1100090E80C0030681A1C9043306005F1300004F02DF9022105F1C8003B
:20314C0005F024FDB86AA10815D200F110020CCA002122400B40002B08BF002A0BD0016993
:20316C0085690C40F8622C434FF48041846107F1C80005F00BFDB86A002837D107F1240428
:20318C00204606F068F8051C30D0F868E968884226D1A86803F054F917490860E0B906F12C
:2031AC00080128690A6810430860326805F1100393E80300081C1043306000233361A8684D
:2031CC0046F80C0C06F1100000680028FAD0204605F044FCBD62F8BD086802F073FCF8BD37
:2031EC0007F1C8004FF4805105F0D0FCF8BDC046B80900200C100440802000202DE9F04725
:20320C0007467D68D7F8089090460E4606F0B4F88246A86A002864D105F1F00005F060F9D2
:20322C000024EC772E6250466C6206F0A1F806F0A3F82F4E3378824623B9022004F06CFA9F
:20324C0001203070504606F093F82A49086840F4807008603846414603F046FEA862C0B95C
:20326C003846414603F05EF9A878D0B9A96805F1B80006F03DF8E8B9AC621020E877494693
:20328C00284601F021FF06F077F88246307840B323E0D9F80010886B40F020008863A878A9
:2032AC0010B12046BDE8F087A96805F1B80006F01FF810B1686ABDE8F0873846414603F04C
:2032CC0031F91020AC624946E877284601F0FCFE06F052F88246307818B1022004F004FAA6
:2032EC003470504606F044F84FF0FF30BDE8F0878B200020301000402DE9F04390460A68F0
:20330C00D8F800401678814600271D46ADF1140D3846531C242E0B6053D112F8016F5B1C34
:20332C004C2E0B600ED1AA68E41C24F00304241D54F8040C494602F04FFC2968EF6001271F
:20334C00091A2960462E1AD1E41C24F00304241D54F8040CE41C029024F00304241D54F864
:20336C00040C002749460390AA68ADF8047001A800F0ACFF2968EF600127091A2960532E44
:20338C001FD1E41C24F00304241D54F8040CE861C8F80040288B0090A968EA69D9F80000B8
:2033AC004346FDF7FFFBD9F80040002714B10119C9F80010D8F800402968EF60091A012767
:2033CC002960662E0AD12B8B23B9E41D24F00704083403E0E41C24F00304241D1FB9E96992
:2033EC000E700127EF60C8F8004005B0BDE8F0833A4998B50A6881781446D1B1012910D0DE
:20340C0002290AD003291CD1C178002904BF0DA10A1C0FD012A20F4609E0C17889B917A284
:20342C0008E0C778391C08BF1AA203D01FA2002102E024A20027394600970388204604F002
:20344C0048FE98BD43786E20256420626F6E642073617665207375636365737300C046C082
:20346C0043786E20256420626F6E642073617665206661696C65643A2025640043786E202B
:20348C00256420626F6E64696E67207375636365737300C043786E202564207061697269B6
:2034AC006E67207375636365737300C043786E2025642070616972696E67206661696C3A80
:2034CC002025640043786E2025642070616972696E67207374617274656400C02002002042
:2034EC002DE9F0430646ADF11C0D05F0FDFE04F0CBF84FF000090546CDF8009005F0F0FDF3
:20350C0030F0010002D00098A84202D16FF0040059E070684C4658B1B0F1FF3F05D001A9EA
:20352C0004F09AF830B107464CE04FF0FF3000E02046019005F0D4FE0199012701EB0008DD
:20354C0000E001936868019905F0D2FE00282ED003A803F04BFED8B99DF8100002A903F0DB
:20356C002BFE88B9B368BDF808009DF81210059A984748B19DF81270B773BDF80800B081A0
:20358C00059B33614F4612E00599684604F0E0FA0198641CB0F1FF3FD4D00028D2D005F0EF
:2035AC009FFEB8EB000302D001989842C9D2009905F1080004F062FC24B1686805F08CFECF
:2035CC00641EFAD1384607B0BDE8F083F0B5ADF1340DFFF771FC304908682822082340F0D0
:2035EC000200086001A8002105F096FE2B4E2C490524002301AA079406F1C80005F088FE48
:20360C0000213022082301A805F08EFE0025FF271921244AADF81C5001AB099706F14C0043
:20362C00009505F07DFE2822082301A8294605F073FE1D4901AA2B4606F1FC00079405F081
:20364C0067FE3022082301A8294605F06DFE01241A21164AADF81C4001AB099706F1680098
:20366C00009505F05DFE12492A4606F1A400134605F046FE0F4805F0ADFCB47186F8A350D6
:20368C007571F57135727572B5724FF6FF7075610DB0A6F8A000F0BD00200940B8090020A1
:2036AC00618B000025820000A13C0000F95E0000F17F0000D93B00002DE9F8430746D7F846
:2036CC000880D8F800007D68066C16F4F06F466425D1F00911D2700951D395F83C00AC6BCD
:2036EC00401E844288BF041C3846214603F0A2FBA86B001BA8630DD041E0A96B384603F002
:20370C0099FB95F82D10A86311B9002837D101E00020A86305F1840005F0DAFD2FE0F00ADF
:20372C000ED3D8F80000002144684160A96B04F00F04202988BF2021384603F07BFB1AE091
:20374C004FF000094C4602E0A86B401EA863A86B88B13846012103F06DFBD8F80000446862
:20376C0014F00F04C0F80490EED0286B401E2863686B401E6863EC77384601F017FDB00905
:20378C000BD3A96A49B10E46384603F0ADFBA86218B93846311D02F0C5FEBDE8F883704792
:2037AC007CB50446084601F0B7FE344E02461821304604F025FA04F061FF40F2FF32002328
:2037CC0080B22C210090304602F040FF05F034FB1C210246304604F013FA04F041FF02468B
:2037EC001421304604F00CFA05F0FCF802461021304604F005FA204601F0B6FD02460C21CE
:20380C00304604F0FDF9204605F0D4F81C4D400040F020002870204605F0D8F840F0100019
:20382C002870204604F008FE02462821304604F0E7F9204605F0E2F8400040F06000E8704C
:20384C00204605F0E7F8C00040F0800005F8080C204605F0EBF8800040F47C40A5F89300C3
:20386C00204604F0E3F902460821304604F0C8F94FF48000A5F2091108607CBD00A00C4069
:20388C0049A10C402DE9F043ADF1140D01F03AF8314C4FF003094FF6FF764FF00008254687
:2038AC0004F0C2FE40BBCDF8008001A80DF106016A4604F07DF8F8B9BDF804000127102877
:2038CC0015D160789DF80610884210D1009801888E4209D14088C00B09D3042005F118025A
:2038EC00014603F0A5FD02E002F054FA0746009810B10FB105F016F8E089410824D320F09C
:20390C0001002779E178E08157EA01031CD077B9207A677A8DF8070005F126018DF80870BE
:20392C000A680DF109031A608988998001E08DF80790A07A8DF80F00E77A8DF810700DF14C
:20394C00070005F05FFBE0898108A9D320F00200E08104F03DFCA3E7D00600202DE9F84326
:20396C00044605F009FD81462D48021992F8ED10491ECFB2002F82F8ED704BD12B4D05EBA6
:20398C0084052E78698836F07F0788461AD1F10911D24FF08054D4F8B8018069014640466B
:2039AC00884704F5DC742068406B0146404688470228F8D121E000EB8800D0F800110020B4
:2039CC0088471AE04FF08054D4F8B801006A014640468847D4F8B801806A01464046884769
:2039EC00D4F8B801006B01464046884701210D4A0D48116001688908FCD306F03F003F288B
:203A0C0001D0FFF7ABFF687800F03F003F2801D0FFF7A4FF484605F0ABFCBDE8F883C046F9
:203A2C00740F00202820086028200840589400002DE9F041064605F09FFC2D4D8046A91986
:203A4C0091F8ED00421C002881F8ED204AD1294C04EB8604277807F03F003F2801D0FFF7CC
:203A6C00E7FF607800F03F003F2801D0FFF7E0FF668837F07F001AD1F80911D24FF08054CA
:203A8C00D4F8B801406901463046884704F5DC742068406B0146304688470128F8D121E065
:203AAC0005EB8605D5F80011012088471AE04FF08054D4F8B801C069014630468847D4F89E
:203ACC00B801406A014630468847D4F8B801C06A0146304688470121074A08481160016813
:203AEC008908FCD3404605F043FCBDE8F081C046740F0020589400002820086028200840B5
:203B0C00294A2DE9F04180460126284816600768002FFCD0294C2A4FC020443C206007F1DC
:203B2C00080001682348890804D20168090C41F0F00100E072211E4D85F854120021116340
:203B4C008768384601F062F940463946FFF728FE1C48B038816D40F20F226FF31F418A4254
:203B6C0012D901680068C1F30363C0F3034003B15B1E072805D006280EBF0720801C00F08E
:203B8C000F0043EA001028703846FFF769F80E4814380068C1680220884740202060064F07
:203BAC003E60BDE8F081C046101009409402224302600840AC3F00509404604244600C40CC
:203BCC00A83F00506C130050B4010010042998B54DD1274C04F1240005F03DFB40B994F838
:203BEC00A300400838BFE06804D3D4F8880000E0C068E06041681F4A0978116041681268F5
:203C0C000978914206D0876927B120A20CCA6FF0FF01B847022003F07FFD1120FFF708FFF1
:203C2C000120E071E068011D007C10B16079012804D00E20FFF7FCFEE168091D08680E4939
:203C4C00083007680FB947681FB10020C8610B4F0F600B4A40F2FF7000271060094C8F6186
:203C6C0009484C6105F0B6F9192005F02DFB98BDB8090020D021084000100440510007061F
:203C8C0000000460020000409D2D00000000000000000002F8B505F06FFB2A4C0746103C8B
:203CAC00D4F89C0010F4602F2BD0D4F89C00400CC5B2680807D2A80803D2E80828BF02250B
:203CCC0002E0012500E000256E1D70B202F062F9D4F89C3005F111010120884023EA00013A
:203CEC003846C4F89C1005F043FB04EB8500D0F88C704FB1D4F8880013A20CCA3146B84712
:203D0C0002E0384605F034FBD4F89C0020B104F1FC00002104F03AFF94F8A30080080FD302
:203D2C00D4F8987037B1D4F8880009A20CCA6FF00101B84794F8A30000F0FD0084F8A3004B
:203D4C00F8BDC046C8090020000000000000000800000000000000802DE9F0412D4C054618
:203D6C00A41C20781F4690460E46ADF1380D012803D0FFF72BFC012020705EB1B8F1000FDC
:203D8C006E6007D0C5F8088005F0F6FA617819B105F0EEFA002038E0491CC9B2617005F0EA
:203DAC00E7FA01241FB9684604F07CFF6F46386828607868E860387A2874F86868613869DF
:203DCC0000B1A8610021782205F1200000F0E4FF05A800212422082305F0AEFA8DF82C40AC
:203DEC0005F13800002105AA05F0A2FA05A800212422082305F088FA05490B9505F170001E
:203E0C00002205AB05F07CFA28460EB0BDE8F081D3910000B8090020F8B505F02BF905F017
:203E2C0035F9044604F00C000C2845D0E0081ED203F06AFF234E376805460120014604F0CA
:203E4C008DFB31686943884211D21F4C8220B0FBF7F0291A204605F087FA204605F080FA49
:203E6C000120FDF79DFC204604F03AFB25E0200922D21648610939BF016821F00101016832
:203E8C0041F0010102460160D2F898004FF0805440F00300C2F89800D4F8B801806901468B
:203EAC0020208847D4F8B801094C806B2168804701202060206800E030BF05F0E1F801F01B
:203ECC005FFBF8BDB0970000800F00208C2108402C200940F8B50D46EEB2290824BF264924
:203EEC004D40264BB400195985EA01020240C2F3006C234A00EA05078143FF323A4000F4F7
:203F0C00E0270A43B7F5E02F01D1510E15D300F4E0215CEA010710D002F4E027B7F5A027DA
:203F2C0007D0B7F5803704BF22F4003242F4A02203E022F4803242F4C0221A51114CC10DDF
:203F4C0004D3A4F18001C5F380528A55000E11D305F012FA290E03D201210022B14002E0E9
:203F6C000121B1400A46503423688B431A43226005F0FEF9F8BDC046006000A00010084017
:203F8C00007F077F802002402DE9F0414568876814460E4605F0F0F9A96B29B105F0E8F9FB
:203FAC004FF0FF30BDE8F081AC632E630024EC776C6305F0DDF905F0DFF91E4E8046307809
:203FCC0020B9022003F0A8FB01203070404605F0CFF91949086840F4007008603968886BCE
:203FEC0040F4FA6088636878002818BF201C1ED1696805F1D40005F07BF9B8B9AC6339680D
:20400C00886B20F4FA60886305F0B6F90746307818B1022003F068FB3470384605F0A8F9B6
:20402C001027696B286BEF77401A2863686BBDE8F081C0468A200020301000402DE9F0410B
:20404C000E46294990461C4606AF8C4672680878BB8851783F881278002502EB012242F6AB
:20406C002321521A29D0521E052A18D9921F0CD0263A34D1072F30D8C7F10700984298BFDB
:20408C0083B2674407F1080121E0B84225DBC01B9842D8BF83B22380DCF804000BE0F068F9
:2040AC0004F032FE80B2B84217DBC01B9842D8BF83B22380F06839180AE0082F0DD8C7F127
:2040CC000800984298BF83B207EB0C010F31238040461A4600F0ACF803E0072501E0258075
:2040EC000A252846BDE8F081F40B0020264838B550380468B4F1FF3F08BF002404F0BEFD16
:20410C0022481749002510380560012008601549086002F00BF81448006820B1134800685B
:20412C002046FFF7EDFC124812490560124C0A686FF35B4244EA0200086010490868C0F331
:20414C000130012806D10A680D48104040F400320A6008600B4908680028FCD138BDC0461F
:20416C005C600C400822044380012843000120438C21084048200340000039010400094043
:20418C00FFFFFCFC0C0068426C13005094046042F0B520480127F84201D002F09DF9204D29
:2041AC00204F214EBD4206D203CD0478A4003459401CA047F6E71D48002800D08047164D1A
:2041CC00164FBD4202D210CDA047FAE7F0BD03251BE0416808300A1C2A400BD11A1C2A4039
:2041EC00AB4305D0046804300C600431043BF9D1131C05D0047801300C700131013BF9D141
:20420C00021C2A4001D0A84304300368002BE0D17047C046FFFFFFFF00000000000000001A
:20422C00189F0000789F0000C09E000059C50110002A4AD05FEA000C8B071CD1830722D182
:20424C00102A08D370B4103A78C978C0103AFBD270BC103238D0042A2CD3082A05D30C2A5C
:20426C0024BF08C908C008C908C008C908C092072AD0920F22E00B780370491C401C521E27
:20428C0022D08B07F7D1C30714D18307D8D0121F12D308C903801B0C4380001D121FF8D279
:2042AC000AE008C903701B0A43701B0A83701B0AC370001D121FF4D2121D05D00B7803706E
:2042CC00491C401C521EF9D1604670472DE9F843002A894607464CBF47F6FF75151C002FC7
:2042EC0008BF002032D03888002808BF002403D02A4600F0D1F80446281B26DD388828B1D1
:20430C00291B484612A202F023FB0419B868E0B1D7F804802E1BB8F1000F0DD0404604F082
:20432C00F3FC401DB04207DC291B484609A2434602F00EFB04192E1B122E06DBBB68291B61
:20434C00484606A202F004FB04192046BDE8F8833A2000C0222573222C2000C06C696E65DD
:20436C002025643A200070472DE9F843224D884606464FF0FF3105F12400814604F0B8FFA2
:20438C0000200CE0FF2909D02A688A4204D905EB8101D1F894700FB1002627E0401CB8F198
:2043AC00000F03D018F82010FE29EBD10024346074600127B46011E0FF280ED005EB8000BE
:2043CC000B787268C0F8946007FA03F0104370600A680A49304603F055FC641CB8F1000FFA
:2043EC0004D008EB84010878FE28E5D1484604F073FF3046BDE8F883DC1D0020007FC767B9
:20440C002DE9F8432020EFF3118780F31188214CA068012104F054FF4FF001094FF000080B
:20442C0065692168A4F81C906A1A2168A4F81E80461B401A904227D387F31188404645190C
:20444C00361A4846294604F037FFB042F7D92021EFF3118781F31188E18B012903D140465F
:20446C00294604F029FFB0F1FF3F06D0A169801B814238BF081C411901E0A069291804F0F4
:20448C0017FFA4F820902560A4F81C8087F31188BDE8F883780100209EB513460C461F4ABE
:2044AC001D4912880988824206DB13A219460346204602F04DFA9EBD194A1788814207DBBC
:2044CC0004F01EF842681946204602F041FA9EBD002F08BF0BA2E9D00094002B48BF47F670
:2044EC00FF73104F002101933C6802910E496A46A04702989EBDC0467B6D6F64756C6523E6
:20450C0025647D007B6D6F64756C652D726F70653A25787D00C046C0CC970000CE970000C3
:20452C008A050000C8970000D578000030B5826845682149507DADF1140D40F000400090C2
:20454C00107D08430190937D02F114040220FF2B0AD0D27DFF2A07D0E378A07819430391F3
:20456C0040F0004002900420FE214DF8201005F140006946FFF7F8FEE864002808BF002049
:20458C0018D061780F2203F067FBE86C2178102203F062FBA178FF290BD0E078FF2808D0E6
:2045AC00E86C112203F058FBE86CE178122203F053FB012005B030BD0000C0A02DE99843EC
:2045CC0004F0DAFE1F4CDFF87880814604F1E000007850B94446A068014602208847074695
:2045EC00102002F09FF82FB320E001F0B3F9002820460FD1144909683222B2FBF1F101B99E
:20460C00012100F13004204604F0AEFE204604F0A7FE0FE044460022A16880F8E020022004
:20462C0088470746102002F07DF81FB1A068014603208847484604F09BFEBDE89883C046C9
:20464C0068970000740F0020B09700002DE9F04107467868BE680446F03003F041FF1C48CA
:20466C00016830688069000921D204F085FE194D8046287820B1022003F036F80020287039
:20468C00404604F075FE3168134D886B20F020008863286820F480702860606A216A091A86
:2046AC0021622369626A38469847BDE8F0814FF4FA70B0FBF1F1012998BF0121F034204639
:2046CC0004F052FE204604F04BFEBDE8F081C046B09700008B2000203010004070B51F4CA9
:2046EC00A568064604F036F94FF47A71401B4843050C03F0FFFB2169401A48BF404240F67D
:20470C00B831AD19A94211D306280FDAA268E1688A420BD8206848B1891A114A51438A0C4D
:20472C0002EB1141884288BF011C08E00D49486840080ED208687D2100F0FF004143C82978
:20474C0005D3B1F57A6F88BF4FF47A6103E0C82101E04FF4FA61084670BDC0465420002021
:20476C0040420F00AC3F00502DE9FC41844608AF0878DFF87C803F88FF24022829D14E6876
:20478C007578307842F6021600EB0520801B1AD04DF2EF65401B18BFB0F1020011D177B919
:2047AC00012B0AD11078CA681070C968474600258F4214BF02242C1C0EE00D250AE00B257D
:2047CC0008E00A2506E00097604601F0F6FE054600E00125FF2C07D04046001D006818B187
:2047EC00016809B1204688472846BDE8FC81C046500E00202DE9F04107467E68BD6804F0AE
:20480C00BBFDB16A39B929688969090903D204F0AFFDBDE8F0810024B46204F0A9FDA87DAE
:20482C00FF2806D0E87DFF2803D03046294600F04BFC2968886B20F0200088630D4908688F
:20484C0020F48070086004F097FD0B4D8046287818B1022002F048FF2C70404604F088FDDB
:20486C00706A316A091A31623369726A38469847BDE8F081301000408B2000202DE9F04382
:20488C000C4606462088ADF1240D694602F074FF9DF80000400838BF14202ED3184D05F17F
:2048AC00B800804604F0D8FA002818BF162024D1052002F0B1F96788A388ADF81670E2880E
:2048CC00ADF818302189ADF81A208146ADF81C102088ADF8140005A804F09AFB071C0BD128
:2048EC00AE712C3520682389286066682B8149466E60404602F06AFB384609B0BDE8F0836D
:20490C00D0060020F8B503F0E1FA1F4C1D4D0022012304F19400294601F0BCFE0022022315
:20492C0004F1B800294601F0B5FE04F136060C2000211022A070304600F02EFA04F146071B
:20494C0000211022384600F027FA04F1180500202860207260720721A172E07202F06EFB63
:20496C00102132462070022002F048FD032010213A4602F043FD04202A46014602F03EFD8B
:20498C00F8BDC046E98A0000D0060020F8B5001D84B214F0030002D0241A241DA4B203F046
:2049AC00EBFE01461948102C47680160C8BF8768388800221646C30BDD0319D126B984421D
:2049CC000ADD3A46012617E01388C3189BB29C42138011DC174618469FB1001B80B20428A1
:2049EC00B4BF3C88385344F400443C803F1D08E080F40040002680B2C71938880028DAD1EE
:204A0C000027084604F0F0F83846F8BD64110020B0B50446A768ADF1280D27BB0C20FFF7DC
:204A2C00B5FF071C16D0684600212422082304F06BFC002306976A466168ADF81030144898
:204A4C00059304F031FC386038B904F0C2F8384603F052F86FF0030018E0E068786020699C
:204A6C00B860A7600AE003F087FE0546386803F037FD2069B860284604F0B6F8386861687D
:204A8C0004F072FC386804F06BFC00200AB0B0BD35900000B0B514460F4604F06DFC85B2F9
:204AAC0019480068007808B903F04AFE87B1384603F055F940B114B14FF0FF3020700820DA
:204ACC00FEF74CFF002419E038687968BA6803E04FF480700122014602F00EFC0B490120D9
:204AEC0008600B4908684008FCD30A4800684168022088470CB1002121700446284604F0F8
:204B0C0037FC2046B0BDC04678970000A802504208800240CC010010FEB5FCF7DBFC1E4CA4
:204B2C004FF6FF750026183C03F070FD0028FBD1009601A80DF106016A4602F022FFD8B94A
:204B4C00BDF804000127102811D1A0789DF8061088420CD1009801888D4205D14088C0088E
:204B6C0005D301F0EDF902E003F016FD0746009810B10FB103F0CAFE206A04F091FB00283F
:204B8C00D2D1206A03F01FFE071CF5D001F055FA384603F08BFEEFE720020020F8B50E4691
:204BAC00044604F0D5FB0546304603F081F8071C03D1284604F0C8FB26E0F87F10F0070FFF
:204BCC001BD113487968884202D079682166786010A090E8060004F15807284687E8060060
:204BEC0004F0B2FB04F138004FF0FF3104F080FB04F1680696E80300F8BD284604F0A4FB63
:204C0C00F87F10F0070FFBD102200021F8BDC04679620000020000000000007038B51D4C8E
:204C2C0004F1180004F10C01FFF79EFB1449A06004F0BDFA134D4FF4E0212A46521E03F04B
:204C4C0021F8A0684FF4E0212A4603F01BF80E4DA0684FF0C0512A46521E03F013F8A068D4
:204C6C004FF0C0512A4603F00DF80849C822002304F1240001F00EFD0548606038BDC046F5
:204C8C00817A00000E0005800E0000104D8C0000198B0000841200202DE9F043ADF13C0DF9
:204CAC0004F05AFB1A4C184D002680461C3C684600213C22082304F0EFFA54F8042F68680C
:204CCC00AF6806902B680897694605920F480493002204F0DDFA071C10D003F04DFD8146C1
:204CEC00384601F011FB48B1484603F07DFF2D1D761CDCD0404604F023FB01E001F008FE3F
:204D0C000FB0BDE8F083C0468C930000158E0000701100201CB5042003F094FC022818D0BD
:204D2C00032816D016480068C0F38150032814BF41F288324FF47A721248144C0168543447
:204D4C002046B2FBF1F104F00FFB204604F008FB1CBD03200C4C009000214FF040521C23E2
:204D6C00204601F073FC012000214FF4007209230090204601F06AFC022002F0B5FC1CBD53
:204D8C00B43F0050B097000000A00C40740F0020002213460A46194671B510F0030F0BD0B1
:204DAC00002A82BF00F8011BB2F1010210F0030FF6D1002A08BF71BD11F0FF0141EA01217C
:204DCC00042A18D341EA0141082A0FD30E46102A08D30C460D46B2F10F0312F00F0272C025
:204DEC00103BFCD812F0080F18BF42C012F0040F18BF40F8041B12F0020F18BF20F8021B34
:204E0C0012F0010F18BF017071BD70470246184808B50068C0F3046004F080F800EB22707A
:204E2C00401C162805DA10F10A0FB8BF6FF0090000E015200F49104B00F01F0040F4F850A1
:204E4C0008801868800803D20C490020086001E042F040620A49D00E930E80F0010000F01C
:204E6C000100086083F0010000F00100886008BDB81200506E6208400000094094042A432B
:204E8C000000204338B5054601201A4C68712879B0B903F071FC2178002904BF6FF00704B2
:204EAC00051C15D0491EC9B2217039B903F09CFE606802F038FD0020687118E0054613E0D0
:204ECC0003F05AFC05462078FF2805D16FF00604284603F089FE0BE0401CC0B201282070DA
:204EEC0002D1606802F036FD284603F07DFE0024204638BD1C14002070B50646B079F56844
:204F0C000628A5F108052CDA3079062829DA03F033FC154CB27991000C3401EBC20161182D
:204F2C004968E1B103F060FE30792870B0796870307AA870B179880000EBC1002018F168DE
:204F4C004068083002F004FEB179880000EBC10024186068406804F0BFF9002070BD03F07B
:204F6C0043FE6FF0020070BD9411002038B519491A4C00204822C1F8F30F94F8E200C1F870
:204F8C00FF2F20B3012817D0022807D003281ED151F8310C00F05EF80B2016E051F8315C16
:204FAC002846FCF70DFF40F2FF50A84202D8801CA842F1D2082008E051F8310C00F06CFCFC
:204FCC00054800780028E7D0052084F8E400FDF74DFA38BD39400C4076970000740F0020F7
:204FEC0038B544688568E06C03F0A9FA296817488A6B1040886316480068C16828688847CF
:20500C006868FEF7ABFC04F1680004F03DF904F1840004F035F9A07818B904F1B80004F06C
:20502C002BF9607818B904F1D40004F025F904F1F00004F01DF904F09FF90021217004F09B
:20504C0097F904F1540003F007FA38BD0DF8FFFFD001001038B51A4CA0F5C060D4F8B81002
:20506C00C4F8D4000029B8BF49420028B8BF4042814220DAB4F8BC00124D30214FF47F426F
:20508C0008230090284601F0E1FAB4F8C00004214FF4F80212230090284601F0D7FAB4F8A0
:2050AC00D00020214FF440620A230090284601F0CDFA012000E0002084F8D80038BDC0469B
:2050CC00740F002000A00C4038B50C4621680546886B20F020008863E86C217D01F05AFFD8
:2050EC00E86C217D012202F021F9E86C217D002202F0B2FDE86CA17D002202F0ADFDA8787E
:20510C00012806D005F1B8004FF0FF3104F0F0F803E0216888690009FCD2E86C217D102233
:20512C0002F09AFDA17DFF2906D0E07DFF2803D0E86C112202F090FD38BD70471A4898B506
:20514C00D0F8781203680F0F03F0FF03802B28BF002301F057FA4FF0FF3478B1401E07D0AC
:20516C00401E012802D9801E19D01AE0BFB118E0381C12D0801E14D1143311E03846401E0B
:20518C000BD0801E07D0001F03D0401E09D1163306E0152405E0142403E00A2401E00A33D5
:2051AC005CB2204698BDC046A01000502DE9F04106467468B56804F0DFF80C34E16A21B35E
:2051CC000027E76204F0D4F82968886B20F4FA6088631049086820F40070086004F0CCF849
:2051EC000D4D8046287818B1022002F07DFA2F70404604F0BDF8A06A616A2368091A61627B
:20520C00A26A30469847BDE8F08104F0B1F8BDE8F081C046301000408A200020F0B50E460F
:20522C0015460746ADF11C0D1B214FF6FF7203AB03F082F8024605921AB300200090BDF8D5
:20524C000C00FF240DF11203294601903846029400F066FC041C0FD16889ADF8100070087C
:20526C0004D3384604A903F0E5FA03E0384604A903F075FF041C05D004A81B2103F0AAF966
:20528C0000E01524204607B0F0BDFEE72DE9F8430024002B16460F468046254606D5002FAE
:2052AC00C3F1000302D57F42761E2D2599463846494601F031FC0CA0405CB7FBF9F7002F8A
:2052CC0004F1010408F8010DF1D1A64205DD3021301B401E08F8011DFBD10DB108F8015D2E
:2052EC004046BDE8F883C0463031323334353637383961626364656600007047F8B5174ACF
:20530C00174B184C121D22F003019C4621605E1A2068256860606768A660002001E025F8D3
:20532C00020BAB42FBD84FF6FC75B3102A4001EB830323F8040CACEB0202E82315403B805E
:20534C00EC3DA1F8E850E83144F8081CFFF71EFB44F8040C606844F8080CF8BD8C200020DA
:20536C00E03E00207011002038B504461848174DC03002686B68C2F30351C2F303405B08B6
:20538C0013D22B681D0511EB257103D41029A8BF0F2100E000211B0410EB237303D4102B6B
:2053AC00A8BF0F2300E00023184640EA011002F47F4102F0FF03222C41EA004143EA01001A
:2053CC0024BF02F08042104338BDC046AC3F0050B812005030B5401E4FF00004ADF12C0D2A
:2053EC000AD0401E04D0401E20D1FDF73FF81DE000F078FC044619E001A8214624220823F6
:20540C0003F082FF06940D4DADF8144009490794012201AB05F1780003F072FF064A2346D8
:20542C002C2105F19C00009303F07AFF20460BB030BDC046E5570000794F0000740F0020C7
:20544C0038B50546880F26D301F05EFC124803F0C1FD1548801C0078012803D005F1380087
:20546C0003F03AFF0D4800240460022002F03CF91120FEF773FA287C10B90E20FEF76EFA43
:20548C000748084A04721178447221B11470C830042103F07BFB38BDD93B00000000046061
:2054AC00B809002088200020B80900202DE9F041054615F8017B90460E461CE0B8F1000F5D
:2054CC0005F101050BD0FF2C09D8022015F8011B401E41EA0424F9D101E0042C02D315F824
:2054EC00011B00E0394630462246FFF755FCA61901E006F8010B15F8010B8742F9D115F89D
:20550C00014B002CE9D115F8010B2C7800022418D4D1BDE8F08170470146184880B598303C
:20552C0000688A0CC0F38367C0F38F2022D241F3072100290BD54A420021400805D17F08B7
:20554C0006BF0127381C4FF6FF70521EF5D1002910DD4FF6FF72400040F00100824207D23A
:20556C00780040F001070F2F92BF01200F27101C491EF0D140EA074080BDC046B812005067
:20558C00164880B507683FB315498B6803EA5300C00E21D2134A106880081DD24868800835
:2055AC001AD21068096810F0050F4FEA114101F0F00101F5E0710AD1B9420DD2190F38BF6E
:2055CC0040F00100D90E38BF40F0040003E0B94202D920F00500106080BDC046285009403A
:2055EC00AC3F0050000009401CB5184C243C616AA9B1002808BF0AA205D001F10800097975
:20560C0002F0E8FF0BA200210091A069E37802F060FD606A03F07AF900206062E0701CBD58
:20562C005273702073656E742C2072657472793A2025640052737020726574727920666178
:20564C00696C65643A20256400C046C02C0200202DE9F84F061C28D01548017800244FF6F3
:20566C00FF7A81461FE0A00036F800B03518DA4515D0AF789FB102F063FD5FEA00080ED018
:20568C00780804D3584601214246FFF7C7FDA878800804D3288802214246FFF7BFFD99F888
:2056AC000010641CE4B2A142DDDCBDE8F88FC046D00600202DE9F8438146EFF31188202021
:2056CC0080F311880125114E114CF561114F6560F86A016A14208847D9F81000810C14BF44
:2056EC00000C0420A06138680268232100209047C6F88052206820F4C02040F480302060B8
:20570C00356088F31188BDE8F883C0460000244300200940840100107FB58168446801F18E
:20572C000C0589681E46201D03F0E2FD10B3099800900A9B01930B9A02920C990391A98818
:20574C00089B28683246891E03F05BF82B68184603F0DAFA0D21195429680A22461C72546D
:20576C0029682368751C18462A4603F0EFFC201D03F0B2FD00907FBDD0B5044603F0B4FDA6
:20578C0000F0C2FD071C08BF6FF002041FD002F0F3FF0146A2880F480023243030F80C6F4A
:2057AC005EB902804760A26882602373786820610024084603F018FA09E0964208BF6FF05C
:2057CC000204F6D05B1C062BE8D301F0A1F82046D0BDC046701100201648144A144908B594
:2057EC00E4300078801E0A2807D8DFE800F01814100614100614100609C003F07DFD11E0EE
:20580C0010688008FCD250688008FCD20AE008688008FCD306E008688008FCD202E01068E9
:20582C008008FCD3FCF722FE08BDC04634600C4038600C40740F002010B503F09DFD114C11
:20584C00611C097829B10E490C6803F091FD204610BD03F08DFD03F007FA0DA20CCA03F0FC
:20586C006DF9A26C002314001B1807A044EB010490E80600C91842EB04021046001C10BD92
:20588C0004300440B8090020000000127A00000000093D0000000000134910B50A684BF201
:2058AC00F5214843040AC2F38140012806D102F021FB01F00BFA604304EB90540C4901F1F6
:2058CC00E500007830B90948006820F07F402418640802E0002081F8E50006480460210C07
:2058EC0041600123836010BDB43F005010200940740F00203C600C40B0B5044603F0F0FB53
:20590C0030F0010008BF6FF004041ED003F0ECFC054602F031FF01460D480622303030F8AA
:20592C000C7F6FB1A388BB4208D1406800680022854208BF0122A260002403E0521EEED194
:20594C004FF0FF34084603F04FF92046B0BDC0466411002008B5012002F074FE01281DD07A
:20596C000F4834210122002301F076F8002808BF002014D00B48006802F0F8FA02F0EAFF5D
:20598C000A4A93681168D060C01A074BA1EB91014343180C884228BF011C1160012008BDEA
:2059AC0000A00C408000001040420F0054200020B0B5144D28680004070C21D002F09AFA56
:2059CC00114991F90720824205DD10F1800FB8BF6FF07F00C8718C88BC4210D80A68D5F8B3
:2059EC00D40F801A801C1F2888BF1F203F1B4008C7404FF6FF70E719B84238BF071C8F8035
:205A0C00B0BDC0463410094078200020154B10B3401E1BD0401E14D0401E0AD0401E1FD18E
:205A2C0005291DD1116818460C300160137903717047012914D111781846C1708068FFF70E
:205A4C0007BE01290CD11846801C07E0012907D11846401C02E0012902D11846117801709A
:205A6C007047C046500E002098B5134C0C342068011D4068406810B180472168091D086856
:205A8C000830016809B94768A7B10C4A1C321768002FFCD00023136029B108468047206865
:205AAC00001D00680830406800B180470448503802F0A2FC98BDC046B80900200010044009
:205ACC0051000706F8B5074603F056FC124C06462079E0B1401EC0B22071C0B904F1C800B2
:205AEC00082103F053F897B1E068703002F0F8FCE0680A4DC0683F1A286804F1A405B7FB1D
:205B0C00F0F1284603F030FC284603F029FC304603F02EFCF8BDC046B8090020B09700000F
:205B2C00B0B504AF3F88002F18BF0B2025D1087802281FD14D686C782F7800204FF6F175AE
:205B4C0007EB04277F1B012F0ED9FF1E0CD07F1E1CBF011C0A200FD105241C80C9680B686A
:205B6C00136009791171B0BD01241C80C96809781170B0BD002101201980B0BD15490968BD
:205B8C0021280ADC212819D00C380FD00D380FD0001F0FD0C01E0FD01AE0253810D0001F40
:205BAC0010D0401E10D0401E10D011E0086870474868704788687047C86870470869704748
:205BCC004869704788697047C8697047086A704700207047F0010020F8B50646B088154624
:205BEC000F46FEF759FC0446002D02D4281B0A2806DB3368291B38460BA200F0A9FE041999
:205C0C00B08978B1002D06D4B06803F07DF8291B401D884206DCB368291B384603A200F0D0
:205C2C0097FE04192046F8BD257000C028272573272900002DE9F041134C94F80180A5782F
:205C4C00267B182002F088FB071C18D00421002203F064F8404602F085FA38727D72BE7289
:205C6C0004F13600F86004F146033B6104F118027A6102F081FB034A394601F0F9F8BDE810
:205C8C00F081C046FD910000D006002038B50C4620B141680122A240114201D1022038BD03
:205CAC00914341600D480025231800EB8401C1F8945003F140010978FF291ABF406850F8FA
:205CCC00211044F020410648FEF704F920464FF0FF3102F0E1FC284638BDC046DC1D00208C
:205CEC00007FC76738B5134D95F8E100002410B91148007860B103F03FFB95F8E31000298B
:205D0C0006BF012185F8E310012403F031FB0CB1002038BD022001F0FFFC0E20FDF788FE54
:205D2C0002F068FA01280EBF0120002085F8E20038BDC046740F0020769700000246F8B5CD
:205D4C00084611464C6820381CD0401E17D0401E18BF6FF0010019D18D6803F00DFB0C4E8C
:205D6C0007463068016928688847B0F1FF3FF8D100253846A56303F0FBFA2846F8BD0021EA
:205D8C00084601E00121002084F82D10F8BDC046D001001070B5054628780126A23802D04E
:205DAC002E381AD01DE0687913281AD128890E4C01280AD12046B2380078022805D103F0B9
:205DCC007DF9688803F03BFA0BE0052000F024FF0146204601F0FAF803E02846FCF7C0FC76
:205DEC000646304670BDC046880700200A1880B5521E0AE0891E7F1E00F10200C9B217D1A8
:205E0C00012908BF401C00E00818824298BF002017D910F8011B0029F7D00378022B18BF6B
:205E2C00032BF1D1491E401CC9B20229E8DB4F108242E5D90378F02BDCD14378FF2BD9D187
:205E4C00012080BD012838B51ED1012002F0FAFB01281BD002F096FD0D4D0E48012232230A
:205E6C0005F1E00100680A70B3FBF0F404B914463035284602F034FB2846214603F074FA8A
:205E8C00284603F06DFA01E001F01CFA002038BD740F0020B0970000084610B500F00051F3
:205EAC0000F00400084317D0012002F0CBFB0E4C01280CD0094909686C3432222046B2FBAE
:205ECC00F1F103F051FA204603F04AFA10BD044803F080F80348046010BDC046B0970000AC
:205EEC00E90E000000100440F009002038B51248104C0168114D0C40E1430160A10908D372
:205F0C004068800905D328464FF40051C83002F03DFE14F4602F0BD0284600F19C010A6865
:205F2C0004F46024FC3014430C60002102F02EFE38BDC04620000E0008100440B809002045
:205F4C0038B5134C606AD0B1E1780830491CE17000F062FD0546162D0AD0042D08D0606ACD
:205F6C004088002101F0B2FD2846FFF73DFB38BD00210091A069E37801A202F0AAF838BDB9
:205F8C005273702073656E642072657472793A000802002098B5044603F0EEF984461048A9
:205FAC0090F8A310C90803D390F8A210A14213D0B0F8A0300B4F012202FA04F11943A0F819
:205FCC00A010391D0B6804F10C07BA4093430B600F680FB900210170604603F0C9F998BD78
:205FEC00B809002008100440DCB5044603F07CF901F04AFB064603F073F830F0010014BF41
:20600C00002E6FF0040017D0606858B1B0F1FF3F05D0694601F020FB30B107460BE04FF064
:20602C00FF3000E0002000907068009903F060F9002700B901273846DCBD10B50446208802
:20604C00401E1CD0401E12D0801F0BD0083805D010381AD1606801F0B7F90CE06068FDF7D7
:20606C00C7F908E060680078FAF7BAFA03E06068007800F00BFA606802F018FC10BD60680C
:20608C0002F08AFA606802F041FC10BD2DE9F0410446114890F8008016460D46102002F0F7
:2060AC005BF9071C12D00421072202F037FE404602F058F838727C72BD72FE6002F05CF9D2
:2060CC00044A394600F0D4FEBDE8F0810420BDE8F081C04627920000D1060020F8B5044628
:2060EC0003F002F900F010F9071C19D002F044FB84460D480021243030F80C6F6EB94FF6CD
:20610C00F872028047600025856021717868A060604602F069FD2846F8BD491C0629EBD3F1
:20612C0000F0F6FBF8BDC046701100200F4908680028FCD1104A131D0D49186820F00300E6
:20614C0001430C480068C0080CD2106810F0030F0AD041F003001860106800F003000328E7
:20616C00FAD101E041F00101196070470C00684204000020B03F005000400340F8B516465F
:20618C000C4603F0F9F802460F484178832554B1641E02D0641E10D00DE08179012904D01D
:2061AC00B0F8A01005E0876A0FB9802506E0806A818B318002E0032500E03170104603F0D7
:2061CC00D7F82846F8BDC046B8090020114990B504461122ADF1140D6846FEF729F80E48E5
:2061EC00A41D302106270170821C7821417014F8011D09111DF8011002F8011B217801F0F1
:20620C000F011DF801107F1E02F8011BEFD105B090BDC04656970000682000202DE9F843DB
:20622C00114C677989468046082F1BDA67B104F18A063D4640463146062202F05BF888B191
:20624C006D1E06F10806F5D14246136804EBC7008830811C0B6092888A807F1C80F801909B
:20626C00FEB26671BDE8F883080200202DE998430446276E9946904607B1B84700200221C2
:20628C0000EA090001EA0801002808BF00290BD104F1580090E8060008EA010109EA020063
:2062AC00002808BF002907D004F1680080E8000304F1380003F010F8BDE89883F8B504463C
:2062CC00A1686068ADF104060025086002F06CFF46F8040F002808BF6FF003000FD06D1C45
:2062EC00F4D0074D6E46002756F8040B55F8041BA368044A01F026FE7F1CF5D00020F8BD33
:20630C00AC970000057600002DE9F843804602F033FA0F4C03250026814654F80C7F5FB91E
:20632C003046C4F800800146A6600A4600F012F8606018B900F0ECFA474501D1264601E0F6
:20634C006D1EEAD1484602F04FFC3046BDE8F88370110020DFF800F0ADB50110B0B50546FF
:20636C0002F0C2FF044602F0BBFE30F0010008BF6FF0040414D002F0FFF90A4A002132F8AD
:20638C000C7F4FB153681B689C4204BF2971002404D0491C0629F2D36FF0040402F024FC23
:2063AC002046B0BD941100207CB5114D04460E46600807D3B0B20021009001220B462846D5
:2063CC0000F044F9A00807D3B0B20090002102220123284600F03AF9E00807D3B0B2009062
:2063EC0000210C220223284600F030F97CBDC04600A00C402DE9F04106467468B76802F0EB
:20640C00BBFF0E4D804628780C3420B1022001F06BF900202870404602F0AAFF3968886B00
:20642C0020F4FA608863A06A616A2368091A6162A26A30469847BDE8F081C0468A2000206A
:20644C0038B50546287B00F00F00022818D10D4C2078012814D0FFF7EFF9A9686FF0704542
:20646C008908A1EB900085420ADDB0F1704FBCBF05490844E168C96801F57A71814200DB47
:20648C00002038BDB8090020F6FFFF1F3EB511490D6820B1801E0FD1022008A401E0002007
:2064AC0009A401A900F06CFC002100919DF804302846224601F00DFE3EBDC0464368617255
:2064CC0020333A20256400C04368617220313A20256400C020020020F8B506460F4D104F52
:2064EC007388002417E0A00000EBC400321851689068D26852B9AF420BD00A7855F822200E
:20650C000346491C08461946904701E0FDF790FE7388641CA4B2A342E5DCF8BDC09E000050
:20652C00CC9E000070B540680C460546F03001F0D7FF0D482A7F0168687F8018AA69C01DBE
:20654C0080B24443094805F1F0066043B0FBF2F008186330B0FBF1F1491C304602F004FFF9
:20656C00304602F0FDFE70BDB097000040420F00F0B50446A5686668ADF14C0D684602F046
:20658C0085FA6868002724220823069039468DF8017009A802F0D0FE012109AA301D8DF8E5
:2065AC003C1002F0C5FE2868694601F0CDF8306000B93C46204613B0F0BDF8B506AF3F880F
:2065CC000D460646E7B9022B18D15078147804EB002434F001000FD1E9680968304602F0C4
:2065EC00EBFB844208BF00200BD0E96809683046224601F007FCF8BD8020F8BD0D20F8BDA1
:20660C000B20F8BD104A1068C0F30F314BF69A10884207D111680B20B0EB117F14BF00207A
:20662C00042070472430884208BF01200BD04BF64130884208BF032005D0213888420CBF69
:20664C0002204FF0FF30704718130050B0B500EB4100102B04AF00F5007403D3103B00F56E
:20666C000174120C3D889D4045EA024502F002FD002700B90127064A394610680028FCD02F
:20668C0025600120106009B102F0FAFCB0BDC04600800C40F0B50D4614461F460646ADF156
:2066AC00240D002124220823684602F02DFE00200590ADF8100008484FF47A71A2B26B4653
:2066CC0000680697B1FBF0F080B229464243304602F016FE09B0F0BDB09700002DE9F04187
:2066EC0004461E4690460D46142001F035FE071C13D03246032102F011FB3C810020387436
:20670C004046FD6001F02EFD787401F035FE044A394600F0ADFBBDE8F0810420BDE8F081A9
:20672C00F587000070B5104C0646204602F004FD0025B0B9204602F08AFD0446A0680642A4
:20674C000AD0E068226900210346304698470546012D08BF012005D0204602F07AFD041C9C
